:020000040800F2
:10000000505A0020F10200087D09000897080008F6
:1000100079090008F9070008B50C00080000000085
:10002000000000000000000000000000390200088D
:10003000FD070008000000008D020008310B0008D9
:100040000B0300080B0300080B0300080B03000858
:100050000B0300080B0300080B0300080B03000848
:100060000B0300080B0300080B0300080B03000838
:100070000B0300080B0300080B0300080B03000828
:100080000B0300080B0300080B0300080B03000818
:100090000B0300080B0300080B0300080B03000808
:1000A0000B0300080B0300080B0300080B030008F8
:1000B0000B0300080B0300080B0300080B030008E8
:1000C0000B0300080B0300080B0300080B030008D8
:1000D0000B0300080B0300080B0300080B030008C8
:1000E0000B0300080B0300080B0300080B030008B8
:1000F0000B0300080B0300080B0300080B030008A8
:100100000B0300080B0300080B0300080B03000897
:100110000B0300080B0300080B0300080B03000887
:100120000B0300080B0300080B0300080B03000877
:100130000B0300080B0300080B0300080B03000867
:100140000B0300080B0300080B0300080B03000857
:100150000B0300080B0300080B0300080B03000847
:100160000B0300080B0300080B0300080B03000837
:100170000B0300080B0300080B0300080B03000827
:100180000B0300080B03000800F002F800F044F82D
:100190000AA090E8000C82448344AAF10107DA45E2
:1001A00001D100F039F8AFF2090EBAE80F0013F0F0
:1001B000010F18BFFB1A43F001031847682F000016
:1001C000882F0000103A24BF78C878C1FAD85207A7
:1001D00024BF30C830C144BF04680C6070470000C1
:1001E0000023002400250026103A28BF78C1FBD840
:1001F000520728BF30C148BF0B607047642900F028
:100200000381732900F01082002070471FB502F0AF
:1002100083FF1FBD10B510BD00F09BFA1146FFF71C
:10022000F5FF00F0BFFD00F0B9FA03B4FFF7F2FFED
:1002300003BC00F041FD00002A4B19680868B0E8D3
:10024000F04F80F30988BFF36F8F4FF0000080F309
:10025000118870470000000006480068006880F3BD
:10026000088862B661B6BFF34F8FBFF36F8F00DFB0
:1002700000BF00BF08ED00E0DFF80C00016841F4AA
:1002800070010160704700BF88ED00E0EFF3098066
:10029000BFF36F8F134B1A681EF0100F08BF20EDCD
:1002A000108A20E9F04F106008B44FF0500080F33E
:1002B0001188BFF34F8FBFF36F8F02F009F84FF033
:1002C000000080F3118808BC19680868B0E8F04F96
:1002D0001EF0100F08BFB0EC108A80F30988BFF33E
:1002E0006F8F704730000020EFF3058070470000EB
:1002F0000948804709480047FEE7FEE7FEE7FEE7BA
:10030000FEE7FEE7FEE7FEE7FEE7FEE704480549F5
:10031000054A064B704700004D0C00088901000893
:1003200050540020505A00205056002050560020B3
:10033000704700000FB4044910B503AA029800F0FA
:1003400077F910BC5DF814FB280000202DE9F0417E
:100350000E460446002020622046E168884730B3FC
:10036000252805D0D4E901219047206A401CF2E7F6
:10037000E168204600278847050018D0A5F1410014
:10038000192802D820354FF4006732462946204606
:100390002760FFF733FF40B1012804D0F61D26F097
:1003A00007060836D8E7361DD6E72846DAE7206A7A
:1003B000BDE8F08170B50C460546012A05D02878C5
:1003C000800600D5EA69002302E0012305E05B1CFA
:1003D000934202D2E05C0028F9D1A869E618C01A5D
:1003E000A861286A184428622846AFF3008004E018
:1003F000D5E9012114F8010B9047B442F8D32846FF
:10040000AFF3008070BD00002DE9F04106460024E6
:1004100010687529314616A510D0AFF3008000286A
:1004200002DA404213A507E031688A0701D512A518
:1004300002E0490704D511A5012401E0AFF30080D3
:1004400000210A2206F1240709E0B0FBF2FCB0FB10
:10045000F2F302FB1C00303078541846491C002887
:10046000F3D123462A463046BDE8F04100F059B8A2
:10047000000000002D0000002B0000002000000004
:10048000032A40F2308010F0030C00F0158011F8C0
:10049000013BBCF1020F624498BF11F801CB00F898
:1004A000013B38BF11F8013BA2F1040298BF00F8EC
:1004B00001CB38BF00F8013B11F0030300F0CA8004
:1004C000083AC0F0088051F8043B083A51F804CBD0
:1004D000A0E80810F5E7121D5CBF51F8043B40F896
:1004E000043BAFF30080D20724BF11F8013B11F8A1
:1004F00001CB48BF11F8012B24BF00F8013B00F8E5
:1005000001CB48BF00F8012B704702F0FF0343EA1C
:10051000032242EA024200F0D1B8704770477047A8
:1005200070472DE9F0470D4699469246044600F182
:1005300024080168880604D5E06921F010012160D3
:1005400000E00120A84201DD471B00E00027A1696F
:100550007A1902EB0900081AA0612078C00602D4BB
:100560002046AFF30080002608E0D4E901211AF804
:1005700006009047206A401C761C20624E45F4DB42
:100580002078C0060AD52046AFF3008006E0D4E903
:10059000012130209047206A401C2062381EA7F1BC
:1005A0000107F4DC07E0D4E9012118F805009047C1
:1005B000206A401C2062281EA5F10105F3DC2046BC
:1005C000AFF300802078000602D50220BDE8F08756
:1005D0000120FBE701694A1C02610878704700B5F9
:1005E0008FB0CDE901310021059105497944CDE96C
:1005F000031011466846FFF7A9FE0FB000BD0000CA
:10060000E5FFFFFF10B5436913B1AFF3008001E0D0
:10061000FFF7D0FE012010BD127800F124010A700E
:1006200000224A700122EDE711684FF0FF32E9E73E
:10063000074B70B50D467B44FFF7D1FF04462846B3
:1006400000F05CF810B14FF0FF3070BD204670BD77
:100650004F07000010B5203AC0F00B80B1E81850E9
:10066000203AA0E81850B1E81850A0E81850BFF49C
:10067000F5AF5FEA027C24BFB1E81850A0E818503B
:1006800044BF18C918C0BDE810405FEA827C24BF8F
:1006900051F8043B40F8043B08BF7047D20728BF1D
:1006A00031F8023B48BF11F8012B28BF20F8023B6C
:1006B00048BF00F8012B70474FF000020429C0F03A
:1006C000128010F0030C00F01F80CCF1040CBCF180
:1006D000020F18BF00F8012BA8BF20F8022BA1EBD6
:1006E0000C0100F011B85FEAC17C24BF00F8012BB7
:1006F00000F8012B48BF00F8012B7047007B00F089
:10070000800070474FF0000200B5134694469646AD
:10071000203922BFA0E80C50A0E80C50B1F1200114
:10072000BFF4F7AF090728BFA0E80C5048BF0CC0C2
:100730005DF804EB890028BF40F8042B08BF704720
:1007400048BF20F8022B11F0804F18BF00F8012B92
:100750007047754600F02CF8AE46050069465346D2
:1007600020F00700854618B020B5FFF7CFFDBDE8A3
:1007700020404FF000064FF000074FF000084FF008
:10078000000B21F00701AC46ACE8C009ACE8C00999
:10079000ACE8C009ACE8C0098D46704710B5044606
:1007A000AFF300802046BDE81040FFF73EBD0000DB
:1007B00000487047F05300201CB50121202000F0B4
:1007C000E9F84FF48070009001208DF804000020BB
:1007D0008DF8060003208DF8050002208DF8070033
:1007E0006946044800F00BF84FF48071014800F0AE
:1007F0004EF81CBD0014024000BFFEE77047F0B584
:100800000A4600210023002400BF3DE0012505FA2F
:1008100001F3156805EA03049C4234D105684F00D2
:100820000326BE40B543056015794E00B540066805
:10083000354305601579012D02D01579022D16D1A9
:1008400085684F000326BE40B543856055794E004C
:10085000B540866835438560456801268E40B543BE
:100860004560456896798E40B6B235434560C568A7
:100870004F000326BE40B543C560D5794E00B54054
:10088000C6683543C560491C1029BFD3F0BD4183FC
:1008900070470183704700BFFEE710B507230222AF
:1008A00008214FF4A87000F0FBF84FF4A06000F0AE
:1008B00067F8A82000F002FA00F036F800F004F81B
:1008C000FFF77AFF10BD00001CB50121422000F0A7
:1008D00061F84FF42440009000208DF804000320BC
:1008E0008DF8050000208DF8060001208DF8070026
:1008F00069460B48FFF783FF0820009000208DF821
:10090000040003208DF8050000208DF8060001206A
:100910008DF8070069460348FFF771FF1CBD000012
:1009200000180240000402401CB50121202000F004
:1009300031F84FF4C060009001208DF804000020D1
:100940008DF8060003208DF8050001208DF80700C2
:1009500069460448FFF753FF4FF4C0610148FFF7B1
:1009600098FF1CBD001402404A0A52020243014B88
:100970001A60704708ED00E000BFFEE77047000016
:1009800002490143024A1160704700000000FA0565
:100990000CED00E029B1064A12680243044B1A60CC
:1009A00004E0034A12688243014B1A60704700005A
:1009B000303802400CB500200190009034480068A7
:1009C00040F480303249086000BF3148006800F4CC
:1009D000003000900198401C0190009818B90198CF
:1009E000B0F5A04FF1D12A48006800F4003010B1F2
:1009F0000120009001E0002000900098012846D1DD
:100A000023484030006840F0805021494031086060
:100A10002048006840F440401E4908601C480830E7
:100A200000681B49083108600846006840F400402F
:100A300008600846006840F4A05008601648091F86
:100A40000860081F006840F08070091F086000BF40
:100A50000F48006800F000700028F9D040F20570DF
:100A60000E4908600A480830006820F00300084971
:100A7000083108600846006840F00200086000BFC6
:100A800003480830006800F00C000828F8D10CBDBD
:100A9000003802400070004008544007003C02400B
:100AA000F0B504460D4616461F461448006840F04F
:100AB00001001249086000201049083108600F4801
:100AC00000680F4908400D4908600E48091D08607C
:100AD000081F006820F48020091F086000200749D3
:100AE0000C3108603B4632462946204600F028F883
:100AF00000210846FFF738FFF0BD00000038024033
:100B0000FFFFF6FE10300024042808D14FF0E0214A
:100B1000096941F004014FF0E022116107E04FF054
:100B2000E021096921F004014FF0E02211617047D2
:100B300010B502F049F8012801D001F0CBFC10BD3E
:100B4000F0B504460D46002100203D4E366846F4BF
:100B500080363B4F3E6001E04E1CB1B2384E3668E5
:100B600006F400361EB941F6FF76B142F4DB41F6D9
:100B7000FF76B14201D1012060E0314E4036366847
:100B800046F080562E4F40373E602E4E366846F473
:100B900040462C4F3E602A4E0836366846F41446CE
:100BA000274F08373E60264E366826F08076244F61
:100BB0003E6045EA84160127C7EB520746EA07461E
:100BC00046EA036646F480061D4F3F1D3E603E1F09
:100BD000366846F080763F1F3E6000BF184E36688C
:100BE00006F00076002EF9D0174E366846F480766F
:100BF000154F3E603E46366846F400763E603E46FF
:100C0000366846F480663E603E46366846F0050625
:100C10003E600B4E0836366826F00306084F08374C
:100C20003E603E46366846F002063E6000BF044E17
:100C30000836366806F00C06082EF8D1F0BD000024
:100C40000038024000700040003C024010B51548DA
:100C5000006840F47000134908601348006840F0D1
:100C600001001149086000200F49083108600E4852
:100C700000680E4908400C4908600D48091D0860CD
:100C8000081F006820F48020091F08600020064922
:100C90000C310860FFF78EFE4FF00060014980398B
:100CA000086010BD88ED00E000380240FFFFF6FE4E
:100CB0001030002400BFFEE700BF704770B5044647
:100CC0000420FFF721FF0C48047025464FF47A708A
:100CD00045430120094908804FF0E020006940F0B9
:100CE00002004FF0E021086108464561006940F0CC
:100CF0000100086170BD00002400002026000020D3
:100D000070B5044601F060FF012810D00B48008840
:100D1000844206D309480088B4FBF0F5284601F068
:100D2000DDF806480088B4FBF0F100FB11444FF4F5
:100D30007A7104FB01F000F003F870BD260000207A
:100D400070B5034600224FF0E02675690D4E3678E7
:100D500003FB06F44FF0E026B16910E04FF0E02607
:100D6000B06988420BD0884202D20E1A324402E0A7
:100D70002E1A0E4432440146A24200D300E0EDE7B1
:100D800000BF70BD2400002000BF054A128802F099
:100D90004002002AF9D0C2B2014B1B1D1A807047D5
:100DA000004400401CB5FFF778FD074801210023EF
:100DB0007822CDE9001005A1074801F0D5FE01F029
:100DC00029FA00201CBD000000000020737461722D
:100DD000745F7461736B0000751A00082DE9F041AF
:100DE00005460E461C4807681C480068001D00F0B8
:100DF000B7FE50B91948006890F82C1001208840BF
:100E000017490968814316480160681C38B936B132
:100E100012480168091D134800F0E0FE1AE07C1931
:100E20000E4800684460BC4207D20C480168091DA6
:100E30000D48006800F0B8FE0CE008480168091D84
:100E40000A48006800F0B0FE09480068844201D2F8
:100E500007480460BDE8F081440000203000002015
:100E600048000020B4030020380000203400002097
:100E70006000002010B5044600F0BCFE2448006865
:100E8000401C234908602348006840B92148046099
:100E90000846006801280DD100F0EEF90AE01E486E
:100EA000006838B91B480068C06AE16A884201D806
:100EB0001848046019480068401C18490860084632
:100EC0000068606494F82C10012088401449096877
:100ED000084313490860E16A01EB8101114A02EB02
:100EE0008100211D00F07AFE00F0C8FE0A4800686B
:100EF00068B108480068C06AE16A884207D24FF0CA
:100F0000805009490860BFF34F8FBFF36F8F10BD4A
:100F100040000020300000204C0000205C00002039
:100F200048000020E400002004ED00E010B500F0CF
:100F300061FE10480068D0B90F4800F025FE0F4848
:100F400000F022FE0C480E4908600C480D4908606C
:100F500000221021052001F0D7FA06490860084652
:100F6000006820B108A10348006800F07BFF00F092
:100F700085FE10BD74000020C8030020DC030020A3
:100F80006C00002070000020546D725100000000C1
:100F900070B523E001F094F91348006808B9012006
:100FA00000E00020054601F09BFFBDB900F022FEE5
:100FB0000D48C068C468201D00F0D2FD0B480068D1
:100FC000401E0A4908600A480068401E0849086037
:100FD00000F054FE204600F060F800BF04480068AE
:100FE0000028D7D170BD0000A003002040000020E1
:100FF0003C00002070B504460D46206C70B1216C99
:10100000E0680844E0606168E068884201D32068D5
:10101000E0602846226CE168FFF732FA70BD2DE9E6
:10102000F04104460F4615464FF00008A66B206CB1
:1010300040B9206860BB606801F08CFE80460020EB
:10104000606025E07DB93946226CA068FFF718FA88
:10105000216CA0680844A060D4E90110884217D32D
:101060002068A06014E03946226CE068FFF708FAB7
:10107000216CE068401AE0602168E068884203D291
:10108000216C6068401AE060022D01D106B1761E25
:10109000701CA0634046BDE8F08110B50446206B8B
:1010A00000F024FE204600F021FE10BD0146084A53
:1010B000126812680AB9012200E000220A600A6878
:1010C00022B9034A1268D268106800E00020704715
:1010D0006C00002030B54FF4A043174800F007041F
:1010E0002CB1C01D20F00700134C041B1B1B024633
:1010F000124C22600024114D6C60D018083820F08A
:1011000007000F4C206000240D4D2D686C600C4DC5
:101110002D682C601146441A4C60094C24680C6000
:10112000084D4C682C60084D4C682C604FF0004412
:10113000064D2C6030BD0000F00300208C00002024
:10114000940000209C00002098000020A0000020B7
:1011500000BFFFF71DFF064800680128F9D94FF0CE
:10116000805004490860BFF34F8FBFF36F8FF0E7E3
:10117000E400002004ED00E02DE9F04106460D46B4
:1011800017469846069C0DB9246000E02760E66388
:1011900025640121204601F0D5FA84F85080002012
:1011A000A064BDE8F08100002DE9F05F82460F46A3
:1011B00090469B460A9E0C9C4FEA8801A522206B14
:1011C000FFF7A3F9A8F10100216B01EB800929F0D9
:1011D000070909F0070008B9012000E0002028B93C
:1011E00040F22B321BA120A0FFF7A4F8002507E056
:1011F000795D04F134004155785D00B902E06D1C61
:10120000102DF5D300BF002143200155202E00D31F
:101210001F26E662E66400202065201D00F0C1FC68
:1012200004F1180000F0BDFC2461C6F12000A061AB
:1012300064620020606584F858005A46514648466A
:1012400000F002FC20600B9808B10B980460BDE828
:10125000F09F00002E2E5C4672656552544F535C21
:101260007461736B732E63004572726F723A2573EB
:101270002C25640D0A00000010B5002407E004EBE3
:1012800084010F4A02EB810000F07EFC641C202CDC
:10129000F5D30C4800F078FC0B4800F075FC0B48C7
:1012A00000F072FC0A4800F06FFC0A4800F06CFC89
:1012B00004480949086004480849086010BD000056
:1012C000E400002064030020780300208C03002049
:1012D000A0030020B40300203400002038000020C8
:1012E00010B50146164800E0006803688B42FBD346
:1012F0000246436813448B4204D143684C6823443C
:10130000436001460A464B6813440468A34211D166
:101310000C4C03682468A34208D04B6804686468D6
:1013200023444B6003681B680B6005E0054B1B689A
:101330000B6001E003680B60884200D0016010BDC3
:101340008C000020940000202DE9F04104460D4659
:1013500016461F464FF0000865602461B5420CD860
:10136000F01BA169884202D34FF0010811E0211D52
:101370000948006800F018FC0BE0BE4204D2BD42F0
:1013800002D34FF0010804E0211D0448006800F07A
:101390000BFC4046BDE8F081700000206C0000208E
:1013A00070B5054600F026FCA86B08B9012400E0E2
:1013B000002400F063FC204670BD70B5054600F0C7
:1013C00019FCA86BE96B884201D1012400E00024DC
:1013D00000F054FC204670BD2DE9F3410D46009805
:1013E000846C00272CB940F6CE121AA11EA0FEF77D
:1013F000A1FFA06BE16B884201D2012000E0002038
:1014000028B940F6CF1213A117A0FEF793FFA06BE7
:10141000E16B88421BD294F945602A466946204612
:10142000FFF7FDFD0746701C60B9606A08B901202E
:1014300000E0002050B904F1240001F0F7FC28B1CD
:10144000012703E0701C40B284F8450000BF384615
:10145000BDE8FC812E2E5C4672656552544F535C8C
:1014600071756575652E63004572726F723A2573EA
:101470002C25640D0A000000F8B505460F461348F8
:101480000068C068C468201D00F06AFBE06901289C
:1014900018D1A06941192B463A462046FFF754FF60
:1014A00080B1002003462A4601460090204601F004
:1014B000E1FD06462EB94FF4027205A10AA0FEF71F
:1014C00039FF00BF2046616A8847F8BD6C000020E4
:1014D0002E2E5C4672656552544F535C74696D657F
:1014E00072732E63000000004572726F723A2573AA
:1014F0002C25640D0A000000F0B587B070E0039859
:1015000000280CDA04AE2EB940F2E7223AA140A03E
:10151000FEF710FFD6E90020B168904700BF03989E
:1015200000285DDB059C606908B9012000E000200F
:1015300010B9201D00F014FB02A800F0C7F8054602
:1015400003980A284AD2DFE800F00905072C2E4547
:1015500006082D2F00BF00BF00BF00BF0498A2697E
:10156000811803462A462046FFF7EEFEC0B120460A
:10157000616A8847E069012812D100200090049830
:10158000A169421800231946204601F073FD074661
:101590002FB940F2213218A11DA0FEF7CBFE00BFEB
:1015A0001DE000BF1BE000BF0498A061A06908B166
:1015B000012000E0002028B94FF44E720EA114A0C3
:1015C000FEF7B8FEA06941192B462A462046FFF7D0
:1015D000BBFE04E0204600F089FB00E000BF00BF36
:1015E00000231A4603A90E48006800F0C7FF002830
:1015F00085D107B0F0BD00002E2E5C4672656552A5
:10160000544F535C74696D6572732E630000000063
:101610004572726F723A25732C25640D0A00000022
:1016200074000020F8B505460C4600F049FE6846F7
:1016300000F04CF80646009820BB44B9B54206D8E5
:1016400001F04EFC31462846FFF716FF1CE03CB186
:101650000E480068006808B9012000E00020044638
:10166000A91B22460A48006800F012FC01F038FC71
:1016700050B94FF0805007490860BFF34F8FBFF358
:101680006F8F01E001F02CFCF8BD0000700000201D
:101690007400002004ED00E00A490968096809B9EE
:1016A000012100E0002121B14FF0FF31064A116015
:1016B00006E004490968C968C868034A41681160BE
:1016C00070470000340000206000002070B5044620
:1016D00001F08AFA054607480068854204D200F006
:1016E0000BF80120206001E0002020600148056027
:1016F000284670BD7C0000202DE9F8432DE02148EC
:101700000068C06805681F480068C068C468201D7C
:1017100000F026FA2046616A8847E06901281CD15A
:10172000A0694619AE4207D966602461211D15489B
:10173000006800F039FA10E0002003462A4601460E
:101740000090204601F096FC07462FB940F29232F5
:101750000DA113A0FEF7EEFD00BF0A480068006867
:1017600008B9012000E000200028C8D00548D0F8C2
:1017700000800F480068034908600D48C0F80080E9
:10178000BDE8F8836C0000202E2E5C467265655221
:10179000544F535C74696D6572732E6300000000D2
:1017A0004572726F723A25732C25640D0A00000091
:1017B000700000200C480068401C08B9012000E0BF
:1017C000002028B940F20F1208A113A0FEF7B2FDC5
:1017D00000BF502080F31188BFF34F8FBFF36F8F8E
:1017E00000BF00BFFEE70000800000202E2E5C46F8
:1017F00072656552544F535C706F727461626C65B0
:101800005C525644535C41524D5F434D34465C70CC
:101810006F72742E630000004572726F723A257306
:101820002C25640D0A00000008B500BF6846FFF7CC
:101830003DFC044620460099FFF7F4FEFFF75CFEEE
:10184000F4E770B5044600F0D5F994F945501AE074
:10185000A06C38B100212046FFF7BEFD88B100F032
:10186000FDFB0EE0606A08B9012000E0002038B9F5
:1018700004F1240001F0DAFA18B100F0EFFB00E007
:1018800003E0681E45B2002DE2DC00BFFF2084F8B3
:10189000450000F0F3F900F0ADF994F9445010E080
:1018A000206908B9012000E0002048B904F11000C7
:1018B00001F0BCFA08B100F0D1FB681E45B200E0AF
:1018C00001E0002DECDC00BFFF2084F8440000F0B4
:1018D000D5F970BD2DE9F04104464FF0000800F045
:1018E000EFFC3E48006808B9FFF7F4FB3C4800688D
:1018F000204000285FD1A4B1083404F0070080B173
:1019000004F00700C0F10800044404F0070008B91F
:10191000012000E0002020B9BF2232A13BA0FEF749
:1019200009FD002C47D03D480068844243D83C4E16
:101930003046056801E02E462D686868A04202D254
:1019400028680028F7D125480068854233D03068E0
:1019500000F10808286830606868001B102813D957
:101960002F1907F0070008B9012000E0002020B976
:10197000EC221CA125A0FEF7DDFC6868001B786046
:101980006C603846FFF7ACFC244968680968081A9F
:10199000224908600846006822490968884203D243
:1019A0001E4800681F4908600D49686809680843B7
:1019B00068600020286001F093FA08F0070008B979
:1019C000012000E0002028B94FF4967205A10FA075
:1019D000FEF7B0FC4046BDE8F08100009400002016
:1019E000A00000202E2E5C4672656552544F535C59
:1019F000706F727461626C655C4D656D4D616E6790
:101A00005C686561705F342E630000004572726F20
:101A1000723A25732C25640D0A00000098000020FE
:101A20008C0000209C0000200648006830B1054969
:101A3000096801F15000096D491C01600148006806
:101A40007047000030000020001F4FF080730360DB
:101A5000001F21F001030360001F054B03601438D1
:101A60000260001F6FF0020303602038704700001F
:101A7000B51700081CB5044611480221002378223E
:101A8000CDE900100FA1124801F06EF811480321B2
:101A900000237822CDE900100FA1124801F064F86C
:101AA0001148042100237822CDE900100FA112482B
:101AB00001F05AF81148006800F04AFA1CBD000015
:101AC000040000207461736B315F7461736B0000FC
:101AD000011B0008080000207461736B325F7461A1
:101AE000736B0000211B00080C0000207461736BF5
:101AF000335F7461736B0000411B0008000000201D
:101B000009E005480068C0430449C1F8A4024FF445
:101B1000FA70FFF7F5F8F4E7A482424200804242EF
:101B200009E005480068C0430449C1F8A8024FF421
:101B30007A70FFF7E5F8F4E7A8824242008042425B
:101B40000BE04FF47A70FFF7DBF80448006808B93F
:101B5000012000E0002001490860F2E7A082424233
:101B600001460A69D1E901309860D1E90103586062
:101B70005068884201D18868506000200861106870
:101B8000401E10601068704700F1080141604FF07E
:101B9000FF31816000F10801C16001610021016035
:101BA000704700210161704710B502460B685C1C4C
:101BB0000CB9106907E002F1080000E040684468D1
:101BC00024689C42FAD944684C604C68A1608860E3
:101BD00041600A611468641C146010BD42684A6068
:101BE00093688B60936859609160086103685B1C1F
:101BF0000360704710B500BF502080F31188BFF319
:101C00004F8FBFF36F8F00BF0B480068401C0A491D
:101C100008600846006801280DD108480068C0B275
:101C200008B9012000E0002028B940F2B91204A14F
:101C30000EA0FEF77FFB10BD8000002004ED00E049
:101C40002E2E5C4672656552544F535C706F7274F1
:101C500061626C655C525644535C41524D5F434D2A
:101C600034465C706F72742E630000004572726FB0
:101C7000723A25732C25640D0A00000010B50B483C
:101C8000006828B94FF4E07209A114A0FEF752FBD6
:101C900006480068401E054908600846006820B9EB
:101CA000002080F3118800BF00BF10BD800000201D
:101CB0002E2E5C4672656552544F535C706F727481
:101CC00061626C655C525644535C41524D5F434DBA
:101CD00034465C706F72742E630000004572726F40
:101CE000723A25732C25640D0A00000070B5064673
:101CF0003546002E35D0083D2C461A4960680968E3
:101D0000084008B1012000E0002028B94FF4A0727B
:101D100015A11FA0FEF70EFB206808B9012000E006
:101D2000002028B940F241120FA119A0FEF702FBD2
:101D30000C4960680968084098B1206888B9094969
:101D4000606809688843606000F0BAFA1449606806
:101D500009680844124908602046FFF7C1FA01F0FB
:101D6000BFF870BDA00000202E2E5C467265655243
:101D7000544F535C706F727461626C655C4D656D3D
:101D80004D616E675C686561705F342E63000000B2
:101D90004572726F723A25732C25640D0A0000009B
:101DA00098000020064800684FF47A71B0FBF1F00B
:101DB000401E4FF0E0214861072008617047000095
:101DC0001000002070B5FEF78FFA0546102D11D3D4
:101DD00005F1E02090F8F04310480078844201DBE0
:101DE000012000E0002028B94FF440720CA117A098
:101DF000FEF7A0FA1948006800F4E0601849096885
:101E0000884201D8012000E0002028B94FF4447234
:101E100003A10EA0FEF78EFA70BD00008400002022
:101E20002E2E5C4672656552544F535C706F72740F
:101E300061626C655C525644535C41524D5F434D48
:101E400034465C706F72742E630000004572726FCE
:101E5000723A25732C25640D0A0000000CED00E099
:101E600088000020024600200BE0084B53F8303079
:101E700033B9064B43F8301003EBC0035A6002E05D
:101E8000401C0828F1D300BF70470000A4000020C8
:101E90002DE9F04105460E4617462C46FFF7AAFEEF
:101EA00094F94400401C10B9002084F8440094F9CF
:101EB0004500401C10B9002084F84500FFF7DEFE05
:101EC000A06B28B93A46314604F1240000F0F6F838
:101ED0002046FFF7B6FCBDE8F081000070B504466F
:101EE0000025ACB10F48006808B9012000E00020CF
:101EF00028B940F2CF420CA110A0FEF71BFA00F067
:101F0000DFF900212046FEF769FF00F0E9FF0546F2
:101F10003DB94FF080500D490860BFF34F8FBFF3BC
:101F20006F8F70BD680000202E2E5C467265655272
:101F3000544F535C7461736B732E63004572726F00
:101F4000723A25732C25640D0A00000004ED00E0B0
:101F500070B50546FFF74EFE15B92D48006800E044
:101F600028460446201DFFF7FBFD78B9E06A00EB28
:101F70008000284951F8200040B994F82C10012025
:101F8000884025490968814323480160A06A18B147
:101F900004F11800FFF7E4FD20480068401C1F49C9
:101FA00008601B480068844209D1211D1C48FFF7C6
:101FB00015FE1C480068401C1A49086009E01A48D0
:101FC0000068401E184908602046FFF766F8FFF7D2
:101FD00063FBFFF753FE15480068C0B10C4800686A
:101FE000844214D11248006808B9012000E00020A2
:101FF00028B940F265420FA113A0FEF79BF94FF0FC
:10200000805015490860BFF34F8FBFF36F8F70BDCD
:1020100030000020E4000020480000205C00002088
:10202000A00300203C000020400000204C000020C5
:10203000680000202E2E5C4672656552544F535C3A
:102040007461736B732E63004572726F723A2573FD
:102050002C25640D0A00000004ED00E00120014978
:10206000086070475400002070B504460D462CB936
:1020700040F6063207A10CA0FEF75CF90E48016895
:1020800018312046FFF790FD01212846FEF7A6FEF5
:1020900070BD00002E2E5C4672656552544F535C35
:1020A0007461736B732E63004572726F723A25739D
:1020B0002C25640D0A0000003000002070B5054694
:1020C0000E4614462DB940F6313209A10DA0FEF797
:1020D00031F91048016818312846FFF77FFD0CB12F
:1020E0004FF0FF3621463046FEF778FE70BD000007
:1020F0002E2E5C4672656552544F535C7461736B4F
:10210000732E63004572726F723A25732C25640D2D
:102110000A0000003000002070B505462C46002D56
:102120004BD02649E06A0968C96A884245D2A0694D
:1021300000F0004028B921480068C06AC0F12000C2
:10214000A061E16A01EB81011D4A02EB8101606936
:10215000884201D1012000E0002050B3201DFFF78C
:10216000FFFC78B9E06A00EB8000154951F82000C7
:1021700040B994F82C100120884012490968814325
:10218000104801600D480068C06AE06294F82C10A5
:10219000012088400B49096808430A490860E16A40
:1021A00001EB8101064A02EB8100211DFFF716FDBC
:1021B00003E002480068C06AE06270BD30000020A1
:1021C000E40000204800002010B504462CB940F679
:1021D000C13205A109A0FEF7ADF80C4800682060E7
:1021E0000B480068606010BD2E2E5C46726565521B
:1021F000544F535C7461736B732E63004572726F3E
:10220000723A25732C25640D0A0000005800002046
:10221000440000201CB51A4800210B468222CDE95B
:10222000001018A1194800F09FFC0446012C02D1AF
:1022300000F0E6FE0446012C15D100BF502080F3CB
:102240001188BFF34F8FBFF36F8F00BF4FF0FF3088
:102250000F49086001200F49086000200E490860FE
:1022600000F08AF80BE0601C08B1012000E00020BB
:1022700028B940F2847209A10DA0FEF75BF81CBDDD
:102280006400002049444C45000000005111000842
:10229000600000204C000020440000202E2E5C46F0
:1022A00072656552544F535C7461736B732E630097
:1022B0004572726F723A25732C25640D0A00000076
:1022C00002480068401C014908607047680000200F
:1022D00010B51B48006818B101201A4908602DE0AC
:1022E00000201849086018480068B0FA80F0C0F172
:1022F0001F0404EB8400154951F8200008B10120A7
:1023000000E0002028B940F6F62211A115A0FEF742
:1023100011F804EB84010D4A02EB81004168496821
:10232000416000F1080142688A4202D1416849686F
:1023300041604168C9680F4A116000BF10BD0000CC
:10234000680000205400002048000020E400002025
:102350002E2E5C4672656552544F535C7461736BEC
:10236000732E63004572726F723A25732C25640DCB
:102370000A000000300000201CB5404800684049B9
:10238000884201D0012000E0002028B940F2591213
:102390003CA147A0FDF7CEFF384800683849491EE8
:1023A000884201D0012000E0002028B94FF4AD722E
:1023B00034A13FA0FDF7BEFF414C204600780190BC
:1023C000FF20214608700846007800909DF8000024
:1023D00000F0F0009DF80010884201D1012000E0DB
:1023E000002028B940F2731226A131A0FDF7A2FF08
:1023F0009DF8000000F05000324908700720324973
:10240000086009E030480068401E2F4908609DF8C8
:1024100000004006000E00909DF8000000F08000D3
:102420008028EFD028480068000227490860084645
:10243000008800F4E06008602149019808700F48A6
:102440002030006840F470000C49203108600846D4
:10245000006840F070400860FFF7A4FC00201B49B2
:102460000860FDF709FF1A48006840F0404018492D
:102470000860FDF7F1FE00201CBD000000ED00E04B
:1024800071C20F412E2E5C4672656552544F535CEB
:10249000706F727461626C655C525644535C415259
:1024A0004D5F434D34465C706F72742E63000000C4
:1024B0004572726F723A25732C25640D0A00000074
:1024C00000E400E08400002088000020800000205C
:1024D00034EF00E010B500BF502080F31188BFF347
:1024E0004F8FBFF36F8F00BF00F084FB18B14FF028
:1024F00080500449086000BF002080F3118800BFAD
:1025000010BD000004ED00E02DE9F84305460E463D
:1025100090460DB1012000E0002028B94FF4C472AC
:102520000DA112A0FDF706FF0EB9002701E005FB83
:1025300006F707F15400FFF7CDF9044644B104F162
:10254000540943464A46314628460094FEF714FE95
:102550002046BDE8F88300002E2E5C467265655269
:10256000544F535C71756575652E63004572726FCB
:10257000723A25732C25640D0A0000002DE9FF47EF
:1025800082B005460E461F464FF0000A2C462CB975
:1025900040F2DC4261A166A0FDF7CCFE0EB9206CD2
:1025A00008B9012000E0002028B940F2DD425BA11B
:1025B0005FA0FDF7BFFE00F007FB08B9049808B95B
:1025C000012000E0002028B94FF49C6253A158A0DC
:1025D000FDF7B0FE00BFFFF70DFBD4F83890B9F15E
:1025E000000F3DD0D4F80C8031462046FEF702FDA6
:1025F000DFB9A9F10100A063206810B9FFF714FA50
:102600006060206908B9012000E0002010BB04F1DF
:10261000100000F00BFCE8B14FF080504849086012
:10262000BFF34F8FBFF36F8F14E0C4F80C80606A64
:1026300008B9012000E0002060B904F1240000F096
:10264000F5FB38B14FF080503D490860BFF34F8F24
:10265000BFF36F8FFFF712FB012006B0BDE8F087D4
:10266000049818B9FFF70AFB0020F6E7BAF1000F4B
:1026700004D16846FFF7A8FD4FF0010AFFF7FEFA04
:10268000FFF71EFEFFF7B6FA94F94400401C10B99C
:10269000002084F8440094F94500401C10B9002043
:1026A00084F84500FFF7EAFA04A9684600F00CFA3E
:1026B00040BB2046FEF774FEF0B1206830B9FFF74A
:1026C00099FA6068FFF728FDFFF7D8FA04F12400B3
:1026D0000499FFF7C9FC2046FFF7B3F800F000FCAF
:1026E00000287FF478AF4FF0805015490860BFF3A1
:1026F0004F8FBFF36F8F6EE72046FFF7A2F800F011
:10270000EFFB68E72046FFF79CF800F0E9FB204666
:10271000FEF746FE0028EED000209EE72E2E5C46F7
:1027200072656552544F535C71756575652E630013
:102730004572726F723A25732C25640D0A000000F1
:1027400004ED00E070B505460E462C462CB940F26B
:102750001B121EA122A0FDF7EDFDFFF74BFAD4E9F5
:102760000F12206801FB020060600020A063206857
:10277000A060E06B401E226C216800FB0210E0604C
:10278000FF2084F8440084F845009EB9206908B908
:10279000012000E00020A8B904F1100000F046FB81
:1027A00080B14FF0805012490860BFF34F8FBFF3E4
:1027B0006F8F07E004F11000FFF7E6F904F1240041
:1027C000FFF7E2F9FFF75AFA012070BD2E2E5C46A2
:1027D00072656552544F535C71756575652E630063
:1027E0004572726F723A25732C25640D0A00000041
:1027F00004ED00E02DE9FF4383B0064688461D4600
:102800004FF0000934462CB940F2D92260A165A0EE
:10281000FDF790FDB8F1000F01D1206C08B901203F
:1028200000E0002028B940F2DA2259A15DA0FDF7AE
:1028300081FD022D02D1E06B012801D1012000E0D1
:10284000002028B940F2DB2251A156A0FDF772FD0D
:1028500000F0BAF908B9059808B9012000E0002095
:1028600028B940F2DE224AA14EA0FDF763FD00BF69
:10287000FFF7C0F9A06BE16B884201D3022D38D17C
:102880002A4641462046FEF7CAFB0746A06C68B1BF
:1028900029462046FEF7A0FD28B34FF08050454959
:1028A0000860BFF34F8FBFF36F8F1CE0606A08B9F9
:1028B000012000E0002068B904F1240000F0B6FA1D
:1028C00088B14FF080503B490860BFF34F8FBFF392
:1028D0006F8F08E03FB14FF0805036490860BFF37A
:1028E0004F8FBFF36F8FFFF7C9F9012007B0BDE825
:1028F000F083059818B9FFF7C1F90020F6E7B9F1A0
:10290000000F04D101A8FFF75FFC4FF00109FFF7AA
:10291000B5F9FFF7D5FCFFF76DF994F94400401CB9
:1029200010B9002084F8440094F94500401C10B907
:10293000002084F84500FFF7A1F905A901A800F0DF
:10294000C3F8F0B92046FEF738FDA0B104F110003D
:102950000599FFF789FB2046FEF773FF00F0C0FAE8
:10296000002885D14FF0805012490860BFF34F8F87
:10297000BFF36F8F7CE72046FEF763FF00F0B0FAED
:1029800076E72046FEF75DFF00F0AAFA0020ADE7EB
:102990002E2E5C4672656552544F535C7175657599
:1029A000652E63004572726F723A25732C25640D93
:1029B0000A00000004ED00E02DE9F05F80468A4641
:1029C00015461E4644462CB940F29F3235A13AA026
:1029D000FDF7B0FCBAF1000F01D1206C08B901205D
:1029E00000E0002028B94FF468722EA132A0FDF754
:1029F000A1FC022E02D1E06B012801D1012000E0F0
:102A0000002028B940F2A13226A12BA0FDF792FCAC
:102A1000FFF7D8F900BF5021EFF3118081F311883F
:102A2000BFF34F8FBFF36F8F00BF0746A06BE16B03
:102A3000884201D3022E2BD194F945B0324651463B
:102A40002046FEF7ECFA0BF10100C8B9A06C40B1CA
:102A500031462046FEF7C0FCB8B1B5B10120286070
:102A600013E0606A08B9012000E0002068B904F1B1
:102A7000240000F0DBF940B13DB10120286004E002
:102A80000BF1010040B284F845004FF0010901E06C
:102A90004FF0000900BF87F3118800BF4846BDE82A
:102AA000F09F00002E2E5C4672656552544F535CB9
:102AB00071756575652E63004572726F723A257384
:102AC0002C25640D0A0000002DE9F04104460D4656
:102AD0002CB940F6CB3219A11DA0FDF72BFC2DB966
:102AE00040F6CC3215A11AA0FDF724FCFFF782F8BE
:102AF0001B4807682868401C08B9002619E01949D6
:102B000020680968884204D06068B84201D801266C
:102B10000FE06068381A2968884209D2286861681D
:102B2000791A401A28602046FFF74EFB002600E085
:102B30000126FFF7A3F83046BDE8F0812E2E5C4653
:102B400072656552544F535C7461736B732E6300EE
:102B50004572726F723A25732C25640D0A000000CD
:102B600044000020580000202DE9FF4F85B080462A
:102B700089461746DDE912ABB800FEF7ABFE064604
:102B800056B15C20FEF7A6FE04460CB1266304E0B5
:102B90003046FFF7ABF800E000247CB10020CDE91F
:102BA00000ABCDE902403A4649464046089BFEF755
:102BB000FBFA2046FEF75EF9012501E04FF0FF35F4
:102BC000284609B0BDE8F08F0549096809B9012018
:102BD00005E00449096809B9022000E000207047B7
:102BE0004C00002068000020014908687047000080
:102BF000440000202DE9F0414FF0000841480068F2
:102C0000002872D140480068451C3F480560EDB976
:102C10003E480068006808B9012000E0002028B99B
:102C200040F6D9123AA13FA0FDF784FB3748076868
:102C300040480068354908603E4807603E480068E3
:102C4000401C3D490860FEF727FD00BF3B48006877
:102C500085423CD300BF2D480068006808B90120B8
:102C600000E0002020B14FF0FF30344908602DE033
:102C700026480068C068C4686668B54202D22F481A
:102C8000066023E0201DFEF76BFFA06A18B104F177
:102C90001800FEF765FF94F82C10012088402849A1
:102CA0000968084326490860E16A01EB8101254A69
:102CB00002EB8100211DFEF791FF2349E06A0968BC
:102CC000C96A8842C7D34FF00108C4E700BF1E4855
:102CD0000068C06A00EB80001A4951F82000012802
:102CE00001D94FF0010805E0FFE718480068401CD3
:102CF000164908601648006808B14FF001084046C0
:102D0000BDE8F0816800002044000020340000206D
:102D10002E2E5C4672656552544F535C7461736B22
:102D2000732E63004572726F723A25732C25640D01
:102D30000A00000038000020580000206000002039
:102D400048000020E4000020300000205000002057
:102D50005400002070B505462C460026002D4BD0AF
:102D600026480068844201D1012000E0002028B9F3
:102D700040F6C76222A127A0FDF7DCFA206D28B932
:102D800040F6C9621EA123A0FDF7D4FA206D401EB3
:102D90002065E16CE06A88422ED0206D60BB201D6A
:102DA000FEF7DEFE78B9E06A00EB80001D4951F8BD
:102DB000200040B994F82C10012088401A49096875
:102DC000814319480160E06CE062E06AC0F12000D4
:102DD000A06194F82C100120884013490968084329
:102DE00011490860E16A01EB81010E4A02EB8100A2
:102DF000211DFEF7F3FE0126304670BD3000002095
:102E00002E2E5C4672656552544F535C7461736B31
:102E1000732E63004572726F723A25732C25640D10
:102E20000A000000E40000204800002070B50646BB
:102E3000F068C4682CB940F661321AA11EA0FDF7F3
:102E400079FA04F11800FEF78BFE1F480068A8B954
:102E5000201DFEF785FE94F82C10012088401B49A8
:102E60000968084319490860E16A01EB8101184AC1
:102E700002EB8100211DFEF7B1FE04E004F1180110
:102E80001448FEF7ABFE1449E06A0968C96A884233
:102E900004D9012501201149086000E000252846D9
:102EA00070BD00002E2E5C4672656552544F535C17
:102EB0007461736B732E63004572726F723A25737F
:102EC0002C25640D0A000000680000204800002046
:102ED000E40000208C03002030000020540000207B
:102EE00070B5002400263448006828B94FF4FD620C
:102EF00032A137A0FDF71EFAFEF77CFE2E480068CF
:102F0000401E2D4908600846006800284FD134480B
:102F1000006800284BD024E03248C068C46804F13F
:102F20001800FEF71DFE201DFEF71AFE94F82C1067
:102F3000012088402C49096808432B490860E16A50
:102F400001EB8101294A02EB8100211DFEF746FEBB
:102F50002749E06A0968C96A884202D301202549E5
:102F600008602048006808B9012000E0002000281F
:102F7000D2D00CB1FEF790FB1F48056865B100BFC9
:102F8000FFF738FE10B101201A4908606D1E002DB0
:102F9000F6D10020184908601648006838B10126AB
:102FA000300716490860BFF34F8FBFF36F8FFEF7EE
:102FB00065FE304670BD0000680000202E2E5C4685
:102FC00072656552544F535C7461736B732E63006A
:102FD0004572726F723A25732C25640D0A00000049
:102FE000400000208C03002048000020E400002066
:102FF00030000020540000205000002004ED00E0CC
:103000001CB50024FDF792FF0B48006858B10B482F
:103010001F2100234FF48272CDE9001008A10A4855
:10302000FFF7A2FD04462CB940F2331207A10DA010
:10303000FDF780F920461CBD7400002078000020B8
:10304000546D722053766300291800082E2E5C46BA
:1030500072656552544F535C74696D6572732E636B
:10306000000000004572726F723A25732C25640DC2
:103070000A0000002DE9FF4704460D4616461F468C
:10308000DDF830804FF000092CB94FF4D37217A14E
:103090001CA0FDF74FF91F48006810B3009501967A
:1030A0000294062D15DAFFF78FFD022808D10023C0
:1030B0004246694617480068FFF79CFB814610E0CE
:1030C00000231A46694613480068FFF793FB8146C0
:1030D00007E000233A4669460E480068FFF76CFC9B
:1030E0008146484604B0BDE8F08700002E2E5C46BD
:1030F00072656552544F535C74696D6572732E63CB
:10310000000000004572726F723A25732C25640D21
:103110000A000000740000204FF04070E1EE100A39
:10312000704700004431000800000020A4000000A7
:10313000C4010008E8310008A4000020AC590000D8
:10314000E001000800000000000000000000000096
:1031500000000000007A030A0000000000000000E8
:103160000102030406070809000000000000000037
:10317000000000000000000000000000000000004F
:10318000000000000000000000000000000000003F
:10319000000000000000000000000000000000002F
:1031A000000000000000000000000000000000001F
:1031B000000000000000000000000000000000000F
:1031C00000000000AAAAAAAA000000000000000057
:1031D00000000000000000000000000000000000EF
:0831E0000000000000000000E7
:040000050800018965
:00000001FF
